:020000040000FA
:060000000A128A110C280F
:10000800FE00030EF1000A08F2000A128A118E2877
:100018000A128A110F28F601F701F801F901831273
:100028000313A60183010A128A11F528F500750346
:10003800031D1F282028542801308312031386002B
:100048000130F3000030F4000A128A1123210A1249
:100058008A1102308312031386000130F300003046
:10006800F4000A128A1123210A128A110430831219
:10007800031386000130F3000030F4000A128A11DD
:1000880023210A128A1108308312031386000130D3
:10009800F3000030F4000A128A1123210A128A118F
:1000A8007508031D582859288D2808308312031312
:1000B80086000130F3000030F4000A128A1123216F
:1000C8000A128A1104308312031386000130F300E8
:1000D8000030F4000A128A1123210A128A11023010
:1000E8008312031386000130F3000030F4000A1273
:1000F8008A1123210A128A11013083120313860000
:100108000130F3000030F4000A128A1123210A1288
:100118008A110800831203138C1D93289428ED2854
:100128001412141B982899289D28941F9C289D28F0
:10013800A4281308F0007008F90014139413141677
:1001480083160313941AA928AA28C8281419AD28B5
:10015800AE28C828831203131308F0007008F900AA
:100168008C11141683160313141CBB28BC28B6283C
:10017800831203131308F0007008A600A630F000DD
:10018800F00BC4280000E928941ACB28CC28E928C9
:10019800141DCF28D028E928831203131308F00070
:1001A8007008F900831603131410760883120313DA
:1001B80093001416A630F000F00BE0280000831618
:1001C80003131418E828E928E328831203138C1171
:1001D800EE28000072088A00710E8300FE0E7E0E63
:1001E80009000A128A1164210A128A118312031360
:1001F8002603031D00290129FA28A401A5010030BE
:100208000A128A111A200A128A1183120313A601EC
:100218000130A4070318A50A0030A5072508803A6D
:10022800FF008B307F02031D1B29B8302402031CFA
:100238001E291F290329FA280A128A110C28831259
:100248000313A001A1013F29A201A3010130A207C4
:100258000318A30A0030A30700302302E130031972
:100268002202031C382939292A290130A00703183A
:10027800A10A0030A10774082102031D452973084B
:100288002002031C4829492928290800F30073087B
:1002980083160313930036308312031394008030BF
:1002A80083160313940001309100871507168B17E6
:1002B8000B17831203138C11831603138C15080074
:1002C8008316031788018901C0308316031386003B
:1002D80003308312031386007030831603138F04D0
:0E02E80020300A128A114A210A128A110800D7
:04400E00D4E0FFFFFC
:00000001FF
